:100000000C941B010C944C010C944C010C944C016D
:100010000C944C010C944C010C944C010C944C012C
:100020000C944C010C944C010C944C010C944C011C
:100030000C944C010C944C010C944C010C944C010C
:100040000C944C010C944C010C944C010C944C01FC
:100050000C944C010C944C010C944C010C943804FD
:100060000C944C010C944C010C944C010C944C01DC
:100070000C944C010C944C010C944C010C944C01CC
:100080000C944C010C944C010C944C010C944C01BC
:100090000C944C010C944C010C944C010C94820473
:1000A0000C944C010C944C010C944C010C944C019C
:1000B0000C944C010C944C010C944C010C944C018C
:1000C0000C944C010C944C010C944C010C944C017C
:1000D0000C944C010C944C010C944C010C944C016C
:1000E0000C944C010C94A1010C9455030C946503E1
:1000F0000C94C6010C94AE010C94CA010C94A20598
:100100000C947F030C94D4010C94AA010C94C201AA
:100110000C9456030C9499010C94FD030C94AC03BD
:100120000C94B4010C94B8010C94D0010C9495017A
:100130000C949D010C9483010C94A4010C94BC01BB
:100140000C9478030C947E01000022002500280006
:100150002B002E00310034000201000005010801CF
:100160000B0105050505070508080808020202023B
:100170000A0A080804040404010101010101010143
:100180000303030303030303040707070C0C0C0C0E
:100190000C0C0C0C020202020606060606060606F7
:1001A0000B0B0B0B0B0B0B0B010210202008081084
:1001B00020401020408002010201080402010102D7
:1001C00004081020408080402010080402018004B0
:1001D000020180402010080402010804020101020B
:1001E0000408102040800102040810204080000014
:1001F0000A0B02090C0D0E080703040100000000A1
:1002000000000000000000000000000000000000EE
:1002100000000000000000000000121110000000AB
:1002200000000000000000000000000000000000CE
:1002300000000000A20511241FBECFEFD1E2DEBFF7
:10024000CDBF00E00CBF12E0A0E0B2E0EEE5FEE0C2
:1002500000E00BBF02C007900D92A231B107D9F7A1
:1002600022E0A2E1B2E001C01D92A83EB207E1F790
:1002700011E0CBE1D1E000E006C021970109802F19
:10028000FE010E942507CA31D10780E00807A9F7BF
:100290000E94CB050C942D070C940000282F30E011
:1002A000F901E251FE4F9491F901E855FE4F449156
:1002B0002E593E4FF9012491222309F435C0992388
:1002C00011F191509231F8F4E92FF0E08827E459C8
:1002D000FE4F8F4F0C9425079D01A1017E019501D2
:1002E00099018301A401AA01AE01B401B801BC01C6
:1002F000C201C6018301CA01D001D40180918000EE
:100300008F7780938000E22FF0E0EE0FFF1FE85B15
:10031000FE4FA591B4918FB7F894EC91611148C04C
:1003200040954E234C938FBF0895809180008F7D20
:10033000E8CF80918000877FE4CF84B58F7784BD3C
:10034000E2CF84B58F7DFBCF8091B0008F77809313
:10035000B000D9CF8091B0008F7DF9CF809190000F
:100360008F7780939000CFCF809190008F7DF9CFD1
:1003700080919000877FF5CF8091A0008F77809348
:10038000A000C1CF8091A0008F7DF9CF8091A00007
:10039000877FF5CF809120018F7780932001B3CFA5
:1003A000809120018F7DF9CF80912001877FF5CF4B
:1003B0004E2BB8CF3FB7F89480917D0290917E028A
:1003C000A0917F02B091800226B5A89B05C02F3F67
:1003D00019F00196A11DB11D3FBFBA2FA92F982F6B
:1003E0008827BC01CD01620F711D811D911D42E066
:1003F000660F771F881F991F4A95D1F708951F939D
:10040000CF93DF93C1E0C0931202882399F1D0917A
:10041000B8001091BA008091BC008A7B8093BC0028
:1004200060E084E10E944E0160E085E10E944E019F
:100430001092A702C093A6021092810261E084E1AB
:100440000E944E0161E085E10E944E018091B90059
:100450008E7F8093B9008091B9008D7F8093B90021
:1004600088E48093B80085E48093BC001093BA00C0
:10047000D093B800DF91CF911F9108958F929F92F2
:10048000AF92BF92CF92DF92EF92FF920F931F93A2
:10049000CF93DF93D091D002D13208F0D7C0182F7C
:1004A000C091CF020E94DA016B017C018091A7020A
:1004B00081116BC082E08093A7021093A6028FEF98
:1004C0008093A5021092A402D093A302AFEAB2E0F7
:1004D000E3E8F2E080E0D81391C0109282028091AC
:1004E0008202CC0FC82BC09382028091810281309E
:1004F00009F088C0109281020E94DA016B017C0130
:10050000809182028093BB008091A9029091AA02FF
:10051000A091AB02B091AC02892B8A2B8B2BA1F05E
:100520000E94DA010091A9021091AA022091AB0267
:100530003091AC026C197D098E099F0906171707C7
:100540002807390708F442C08091BC0083FDD8CF4A
:1005500085EC8093BC000E94DA016B017C018091E4
:10056000A702823009F450C08091A5028F3F09F4A0
:100570006FC08091A502803209F46CC08091A50201
:10058000803309F469C084E026C08091A90290916B
:10059000AA02A091AB02B091AC02892B8A2B8B2BC3
:1005A00009F484CF0E94DA018090A9029090AA02F7
:1005B000A090AB02B090AC026C197D098E099F0926
:1005C00086169706A806B90608F070CF8091A80293
:1005D0000E94FF0185E01092AE021092D0021092AC
:1005E000AD02DF91CF911F910F91FF90EF90DF90BF
:1005F000CF90BF90AF909F908F9008959D919193D1
:100600008F5F69CF85EEA5CF8091A9029091AA0254
:10061000A091AB02B091AC02892B8A2B8B2B09F4F1
:100620009ECF0E94DA010091A9021091AA022091A6
:10063000AB023091AC026C197D098E099F09061737
:1006400017072807390708F08ACFC0CF81E0C3CF4A
:1006500080E0C1CF82E0BFCF83E0BDCF20913302E5
:10066000260F3327331F21323105ECF42091A702E6
:10067000FC0190E080E0243069F082E00895A091D0
:1006800033022191AC014D5E5D4FA40FB52FB11D1A
:100690002C930196861798F380913302680F60932C
:1006A000330280E0089581E008950895E0915702B3
:1006B00080915602E81730F4F0E0E85AFD4F80814F
:1006C00090E008958FEF9FEF0895909157028091E9
:1006D00056022FEF3FEF981748F4E92FF0E0E85A61
:1006E000FD4F208130E09F5F90935702C90108952C
:1006F0008091560290915702891B990B0895CF92D1
:10070000DF92EF92FF920F931F93CF93DF937C01C1
:10071000CB018A012091AD02222389F0EB016B010C
:10072000C40ED51ECC15DD0569F06991D701ED9198
:10073000FC910190F081E02DC7011995F3CF642F52
:100740000E942E03C801DF91CF911F910F91FF905E
:10075000EF90DF90CF900895CF93DF931F92CDB7A6
:10076000DEB769832091AD022223F9F02091D002F7
:10077000203258F021E030E0FC013383228390E006
:1007800080E00F90DF91CF9108958091AE02E82F25
:10079000F0E0E155FD4F998190838F5F8093AE0229
:1007A0008093D00281E090E0ECCF61E0CE01019631
:1007B0000E942E03F7CFCF93DF93EC018091DD02EF
:1007C00091E09093AD028093CF021092AE0210920E
:1007D000D00260E481ED92E00E94AC036D2F81EDC8
:1007E00092E00E94AC036C2F81ED92E00E94AC037A
:1007F00081E0DF91CF910C943E0290E080E008957B
:1008000085ED8093BC008091A9029091AA02A091ED
:10081000AB02B091AC020796A11DB11D23E0B695C5
:10082000A795979587952A95D1F72091BC0024FD2F
:1008300003C01092A70208954091A9025091AA0204
:100840006091AB027091AC02452B462B472B69F3AC
:100850000097A105B10541F025E32A95F1F70000C5
:100860000197A109B109E1CF8091A8020C94FF0181
:100870001F920F920FB60F9211242F933F938F93D5
:100880009F93AF93BF938091790290917A02A09148
:100890007B02B0917C023091780223E0230F2D3748
:1008A00058F50196A11DB11D20937802809379021D
:1008B00090937A02A0937B02B0937C0280917D0298
:1008C00090917E02A0917F02B09180020196A11DBD
:1008D000B11D80937D0290937E02A0937F02B0931E
:1008E0008002BF91AF919F918F913F912F910F9077
:1008F0000FBE0F901F90189526E8230F0296A11D9A
:10090000B11DD2CF1F920F920FB60F9211240BB6CA
:100910000F922F933F934F935F936F937F938F9398
:100920009F93AF93BF93EF93FF938091B900887F1C
:10093000803609F44DC008F040C0883209F4A7C0E1
:1009400028F5803109F49BC0C8F4882309F4F7C066
:10095000883009F494C0FF91EF91BF91AF919F91BE
:100960008F917F916F915F914F913F912F910F9058
:100970000BBE0F900FBE0F901F901895883109F491
:1009800086C0803241F78093A50214C0803409F4F8
:100990009BC040F48033B9F38833E9F68093A50215
:1009A00085ECAEC0803509F483C0883509F494C065
:1009B000883489F60E940004CECF883909F48AC0B1
:1009C00038F5883729F050F4883611F0803719F659
:1009D00083E08093A7021092550255C0883809F42D
:1009E00079C0803919F0803809F0B5CF809155026F
:1009F000803208F06FC0E091550281E08E0F809345
:100A000055028091BB00F0E0EB5CFD4F80833BC062
:100A1000803B39F0D0F4803A09F477C0883A09F085
:100A20009ACF84E08093A70210923402109233028E
:100A3000F0E0E0E019958091330281110FC081E070
:100A4000809333021092130209C0803C09F4A8CFAE
:100A5000883C09F4A5CF883B09F07DCFE0913402B2
:100A600081E08E0F80933402F0E0ED5EFD4F8081D7
:100A70008093BB00909134028091330229C0809111
:100A800082028093BB0085EC8093BC0064CF909180
:100A9000A4028091A302981758F5E091A40281E086
:100AA0008E0F8093A402F0E0ED57FD4F8081E9CFD7
:100AB000E091A40281E08E0F8093A4028091BB009C
:100AC000F0E0ED57FD4F80839091A4028091A30246
:100AD0009817C8F285E8D8CFE091A40281E08E0F84
:100AE0008093A4028091BB00F0E0ED57FD4F80831E
:100AF0008091A60281115ECF81E08093810284EA19
:100B00008093BC001092A70226CF85EC8093BC0096
:100B10001092A70280915502803230F4E091550284
:100B2000F0E0EB5CFD4F10826091550270E085E3D0
:100B300092E0F0E0E0E01995109255020CCF10928F
:100B4000A50238CFE1EDF2E01382128288EE93E045
:100B5000A0E0B0E084839583A683B78384E092E02D
:100B600091838083E4EEF2E0108280ED97E093833E
:100B7000828380E581838EE68093E302EDEDF2E0EF
:100B8000108282E08183128213821482158290E0A7
:100B900080E00C94DB03789484B5826084BD84B5D6
:100BA000816084BD85B5826085BD85B5816085BD68
:100BB00080916E00816080936E0010928100809120
:100BC00081008260809381008091810081608093A8
:100BD0008100809180008160809380008091B100CD
:100BE00084608093B1008091B00081608093B000F8
:100BF000809191008260809391008091910081604A
:100C0000809391008091900081608093900080910A
:100C1000A10082608093A1008091A10081608093F7
:100C2000A1008091A00081608093A00080912101AB
:100C30008260809321018091210181608093210154
:100C40008091200181608093200180917A008460EE
:100C500080937A0080917A00826080937A008091FC
:100C60007A00816080937A0080917A008068809316
:100C70007A001092C10008EE13E0C1E0DFE685EED5
:100C8000D82E95ECC92E20E0E22E20E0F22EBB24D7
:100C9000BA941093E7020093E602C093AD02D0939A
:100CA000CF021092AE021092D00260E081ED92E08D
:100CB0000E94AC0381E00E943E020E94DA012B01F7
:100CC0003C018091A702811160C0C093A702C0932C
:100CD000A602B092A5021092A4021092A302C093A1
:100CE0008202809182028E6D8093820280918102C5
:100CF000813009F083C0109281020E94DA012B0139
:100D00003C01809182028093BB008091A902909166
:100D1000AA02A091AB02B091AC02892B8A2B8B2B3B
:100D2000A1F00E94DA012091A9023091AA0240911B
:100D3000AB025091AC026419750986099709261710
:100D400037074807590708F441C08091BC0083FD6C
:100D5000D8CFC092BC000E94DA012B013C018091E7
:100D6000A702813009F44DC08091A40281116BC0AB
:100D70008091A402A3E8B2E0E8E5F2E090E09817E1
:100D800051F12D9121939F5FFACF8091A90290910B
:100D9000AA02A091AB02B091AC02892B8A2B8B2BBB
:100DA00009F48FCF0E94DA012091A9023091AA02A2
:100DB0004091AB025091AC026419750986099709FC
:100DC000261737074807590708F07BCF8091A802FC
:100DD0000E94FF0180E0109257028093560281ED3D
:100DE00092E00E94650390E080E00E94DB03E11442
:100DF000F10409F44ECF0E9400004BCFD092BC000A
:100E0000AACF8091A9029091AA02A091AB02B091C1
:100E1000AC02892B8A2B8B2B09F4A1CF0E94DA011B
:100E20002091A9023091AA024091AB025091AC02EC
:100E3000641975098609970926173707480759075E
:100E400008F08DCFC3CF81E095CFEE0FFF1F881F35
:0E0E50008BBF0790F691E02D1994F894FFCF18
:100E5E0000000000AC037F03FD0355037803650318
:020E6E00560329
:00000001FF
